{
  "_format": "hh-sol-artifact-1",
  "contractName": "Nine",
  "sourceName": "contracts/Nine.sol",
  "abi": [
    {
      "anonymous": false,
      "inputs": [
        {
          "indexed": false,
          "internalType": "string",
          "name": "payeeAddress",
          "type": "string"
        },
        {
          "indexed": false,
          "internalType": "string",
          "name": "cid",
          "type": "string"
        },
        {
          "indexed": false,
          "internalType": "uint256",
          "name": "timestamp",
          "type": "uint256"
        }
      ],
      "name": "CidStored",
      "type": "event"
    },
    {
      "anonymous": false,
      "inputs": [
        {
          "indexed": true,
          "internalType": "address",
          "name": "payer",
          "type": "address"
        },
        {
          "indexed": true,
          "internalType": "address",
          "name": "payee",
          "type": "address"
        },
        {
          "indexed": false,
          "internalType": "uint256",
          "name": "amount",
          "type": "uint256"
        },
        {
          "indexed": false,
          "internalType": "uint256",
          "name": "timestamp",
          "type": "uint256"
        },
        {
          "indexed": false,
          "internalType": "string",
          "name": "cid",
          "type": "string"
        }
      ],
      "name": "PaymentMade",
      "type": "event"
    },
    {
      "inputs": [
        {
          "internalType": "address payable",
          "name": "payee",
          "type": "address"
        },
        {
          "internalType": "uint256",
          "name": "amount",
          "type": "uint256"
        },
        {
          "internalType": "string",
          "name": "cid",
          "type": "string"
        }
      ],
      "name": "payForRequest",
      "outputs": [],
      "stateMutability": "payable",
      "type": "function"
    },
    {
      "inputs": [
        {
          "internalType": "string",
          "name": "cid",
          "type": "string"
        },
        {
          "internalType": "string",
          "name": "payeeAddress",
          "type": "string"
        }
      ],
      "name": "storeCid",
      "outputs": [],
      "stateMutability": "nonpayable",
      "type": "function"
    },
    {
      "stateMutability": "payable",
      "type": "receive"
    }
  ],
  "bytecode": "0x6080604052348015600f57600080fd5b506107188061001f6000396000f3fe60806040526004361061002d5760003560e01c806368e4a7541461003957806395ebe2551461005557610034565b3661003457005b600080fd5b610053600480360381019061004e9190610412565b61007e565b005b34801561006157600080fd5b5061007c60048036038101906100779190610481565b6101e5565b005b600034116100c1576040517f08c379a00000000000000000000000000000000000000000000000000000000081526004016100b890610556565b60405180910390fd5b600073ffffffffffffffffffffffffffffffffffffffff168373ffffffffffffffffffffffffffffffffffffffff1603610130576040517f08c379a0000000000000000000000000000000000000000000000000000000008152600401610127906105c2565b60405180910390fd5b8273ffffffffffffffffffffffffffffffffffffffff166108fc349081150290604051600060405180830381858888f19350505050158015610176573d6000803e3d6000fd5b508273ffffffffffffffffffffffffffffffffffffffff163373ffffffffffffffffffffffffffffffffffffffff167fc3a8a904cd12eef7f6c4ab11f4d1de2b162c2ccf9e287f62ee19f7f7ed3c64d08442856040516101d89392919061065f565b60405180910390a3505050565b7f44ed868c4bffa47c5c1e6fb9a556ae04952a851253cd67c2be55ce4524c7c2ec8183426040516102189392919061069d565b60405180910390a15050565b6000604051905090565b600080fd5b600080fd5b600073ffffffffffffffffffffffffffffffffffffffff82169050919050565b600061026382610238565b9050919050565b61027381610258565b811461027e57600080fd5b50565b6000813590506102908161026a565b92915050565b6000819050919050565b6102a981610296565b81146102b457600080fd5b50565b6000813590506102c6816102a0565b92915050565b600080fd5b600080fd5b6000601f19601f8301169050919050565b7f4e487b7100000000000000000000000000000000000000000000000000000000600052604160045260246000fd5b61031f826102d6565b810181811067ffffffffffffffff8211171561033e5761033d6102e7565b5b80604052505050565b6000610351610224565b905061035d8282610316565b919050565b600067ffffffffffffffff82111561037d5761037c6102e7565b5b610386826102d6565b9050602081019050919050565b82818337600083830152505050565b60006103b56103b084610362565b610347565b9050828152602081018484840111156103d1576103d06102d1565b5b6103dc848285610393565b509392505050565b600082601f8301126103f9576103f86102cc565b5b81356104098482602086016103a2565b91505092915050565b60008060006060848603121561042b5761042a61022e565b5b600061043986828701610281565b935050602061044a868287016102b7565b925050604084013567ffffffffffffffff81111561046b5761046a610233565b5b610477868287016103e4565b9150509250925092565b600080604083850312156104985761049761022e565b5b600083013567ffffffffffffffff8111156104b6576104b5610233565b5b6104c2858286016103e4565b925050602083013567ffffffffffffffff8111156104e3576104e2610233565b5b6104ef858286016103e4565b9150509250929050565b600082825260208201905092915050565b7f53656e6420736f6d652042617365000000000000000000000000000000000000600082015250565b6000610540600e836104f9565b915061054b8261050a565b602082019050919050565b6000602082019050818103600083015261056f81610533565b9050919050565b7f496e76616c696420706179656520616464726573730000000000000000000000600082015250565b60006105ac6015836104f9565b91506105b782610576565b602082019050919050565b600060208201905081810360008301526105db8161059f565b9050919050565b6105eb81610296565b82525050565b600081519050919050565b60005b8381101561061a5780820151818401526020810190506105ff565b60008484015250505050565b6000610631826105f1565b61063b81856104f9565b935061064b8185602086016105fc565b610654816102d6565b840191505092915050565b600060608201905061067460008301866105e2565b61068160208301856105e2565b81810360408301526106938184610626565b9050949350505050565b600060608201905081810360008301526106b78186610626565b905081810360208301526106cb8185610626565b90506106da60408301846105e2565b94935050505056fea2646970667358221220e5ef1fb8e542b4c7c94b36d4952bf20847d73c704c666c6394093691900774ef64736f6c634300081b0033",
  "linkReferences": {},
  "deployedLinkReferences": {}
}